:020000040800F2
:10000000680D0020490100085D170008F915000877
:1000100025170008E90B0008212D0008000000004A
:10002000000000000000000000000000251C000887
:10003000291100080000000089190008610100086A
:100040006301000863010008630100086301000800
:100050006301000863010008A5120008630100089D
:1000600063010008630100086301000863010008E0
:1000700063010008630100086301000863010008D0
:1000800063010008630100086301000863010008C0
:10009000092C0008630100086301000863010008DF
:1000A00063010008630100086301000863010008A0
:1000B000630100081D2400086301000863010008B3
:1000C0006301000863010008630100086301000880
:1000D000630100088127000863010008630100082C
:1000E000C512000863010008E9290008630100083F
:1000F0006301000863010008630100086301000850
:10010000630100086301000863010008630100083F
:10011000630100086301000811250008630100085D
:10012000630100086301000863010008630100081F
:10013000DFF810D000F00AFB00480047213A000821
:10014000AFF30080680D002006488047064800474E
:10015000FEE7FEE7FEE7FEE7FEE7FEE7FEE7FEE777
:10016000FEE7FEE78923000831010008421C10F871
:10017000011B0029FBD1801A70472DE9FE4F8046F4
:1001800081EA0300C00F0C46009021F0004123F0EB
:100190000045B8EB0200A94105D2404621469046F1
:1001A0001C460B46024623F00040104347D0270D63
:1001B000C7F30A00C3F30A510290401A0190402885
:1001C0006BDAC3F3130040F4801B0098924620B111
:1001D0000023D2EB030A63EB0B0B01985946C0F1E5
:1001E0004002504600F0CCF906460D4650465946AE
:1001F000019A00F0D4F910EB08006141002487EA6D
:10020000115284EAE7731A4340D0009A62B3019A0C
:10021000012A4FEA075215DC001B61EB02014FF087
:10022000004202EA0752CDE90042001C41F580116C
:1002300032462B4600F00BFA03B0BDE8F08F404683
:100240002146F9E7001B61EB0201001C41F5801318
:1002500000185B412018A2F5001747EB030140EAA4
:10026000D570B6196D4111E06D084FEA360645EAC2
:10027000C0754FEA0752001B61EB0201001C41F5FB
:10028000801149084FEA30000019514132462B468F
:1002900003B0BDE8F04F00F0CBB900980122400058
:1002A0000023D0EB020263EBE073009821464FEA93
:1002B000E074B8EB000061EB0401E9E783F0004370
:1002C0005BE781F0004158E72DE9FE4F81EA030426
:1002D00004F0004421F0004100944FF0000B23F0A3
:1002E000004350EA01045ED052EA03045BD0C3F33A
:1002F0000A54C1F30A552C44A4F2F3340194A0FB30
:100300000254C1F3130141F48011C3F3130343F406
:10031000801301FB024400FB034E840A970A44EA5F
:10032000815447EA8357A4FB076802958D0A05FBB1
:1003300007854FEA932C04FB0C542705029D4FEAD6
:10034000065847EA1637B5EB08056EEB070C870E23
:10035000920E47EA811742EA8312A7FB0201B6EB2D
:100360000B0164EB00042B0D43EA0C335E1844EBE5
:100370001C50DA465146E7FB0201C5F313044FEA6D
:100380000B3343EA14534FEA0432019C43EA060359
:10039000A4F10C040294009CCDE900B400F057F9DC
:1003A00003B0BDE8F08F00200146F9E72DE9F04DDC
:1003B00081EA030404F0004B21F0004514464FF09D
:1003C000000A23F0004150EA050220D054EA01025D
:1003D0001DD0C5F30A570246C5F31303C1F313003A
:1003E000C1F30A5640F4801543F48013A7EB0608C6
:1003F000101BD64608F2FD3873EB050002D308F156
:10040000010801E092185B41B8F1000F03DA002007
:100410000146BDE8F08D00204FF480110646844669
:100420000EE0171B73EB050705D3121B63EB0503E7
:1004300006434CEA010C49084FEA300092185B4130
:1004400050EA0107EDD152EA030012D082EA04001B
:1004500083EA0501084305D0101BAB4106D20122F7
:10046000002306E000224FF0004302E06FF001029B
:1004700053101AEB06004CEB085110EB0A0041EB4D
:100480000B01BDE8F04D00F0D3B8962300221146D1
:1004900000F0A0B800F0004230F000400AD0C10DDA
:1004A00001F56071C0F3160042EA0151C20840072D
:1004B0001143704700200146704701F0004330B4FB
:1004C00021F0004150EA010206D00A0DA2F5607247
:1004D000C1F31301002A02DC30BC00207047440F36
:1004E00044EAC104C100E01830BC00EBC25000F087
:1004F00068B830B50B46014600202022012409E0EF
:1005000021FA02F59D4205D303FA02F5491B04FACC
:1005100002F52844151EA2F10102F1DC30BD2DE9DF
:10052000F05F0546002092469B4688460646814677
:1005300040241BE0284641464746224600F018F971
:1005400053465A46C01A914110D3114618462246C6
:1005500000F016F82D1A67EB01084F4622460120DD
:10056000002100F00DF817EB00094E41201EA4F108
:100570000104DFDC484631462A464346BDE8F09F89
:10058000202A04DB203A00FA02F100207047914053
:10059000C2F1200320FA03F3194390407047202A48
:1005A00006DBCB17203A41FA02F043EAE07306E09B
:1005B00041FA02F3D040C2F12002914008431946AB
:1005C00070470029A8BF7047401C490008BF20F0B1
:1005D0000100704710B4B0FA80FC00FA0CF050EA49
:1005E000010404BF10BC704749B1CCF1200421FACA
:1005F00004F411FA0CF118BF012121430843A3EBC5
:100600000C01CB1D4FEA00614FEA102042BF0020D1
:1006100010BC704700EBC35010440029A4BF10BCAD
:100620007047401C490008BF20F0010010BC704713
:1006300010B5141E73F1000408DA401C41F10001EA
:1006400092185B411A4301D120F0010010BD2DE941
:10065000F04D92469B4611B1B1FA81F202E0B0FA38
:1006600080F220329046FFF78BFF04460F4640EAA7
:100670000A0041EA0B0153465A46084313D011467B
:1006800053EA010019D0C8F14002504600F070F85A
:1006900005460E46504659464246FFF771FF08434D
:1006A00005D0012004E020463946BDE8F08D002049
:1006B000054346EAE0762C4337430A986305E40A8B
:1006C000A0EB08000022FD0A44EA47540A3002D594
:1006D00000200146E9E7010510196941DDE90845F7
:1006E00000196941BDE8F04DA2E7C1F30A52C1F318
:1006F000130140F2FF3341F480119A4202DA0020E4
:100700000146704740F233439A42A2F2334202DC80
:10071000524200F02DB8FFF733BF000030B5041E81
:1007200071F1000404DB4FF00044404264EB01012E
:10073000141E73F1000405DB1C464FF000435242C7
:1007400063EB0403994208BF904230BD064C074D4D
:1007500006E0E06840F0010394E807009847103491
:10076000AC42F6D3FFF7E8FC1C3C00083C3C000818
:10077000202A04DB203A21FA02F00021704721FAF6
:1007800002F3D040C2F1200291400843194670475D
:1007900070B58C1810F8015B15F0070301D110F843
:1007A000013B2A1106D110F8012B03E010F8016B70
:1007B00001F8016B5B1EF9D12B0705D40023521EF3
:1007C0000DD401F8013BFAE710F8013BCB1A921C5B
:1007D00003E013F8015B01F8015B521EF9D5A14259
:1007E000D8D3002070BD000008B50121102001F011
:1007F0003DF90220ADF8000000208DF803006946A5
:10080000014800F0FDFD08BD0010014010B586B0A4
:100810000121480201F02AF94FF4404001F00EF99D
:10082000002001908DF8080001218DF809104FF487
:100830006022039204908DF81410174C01A92046F1
:1008400000F05CF8012000F0CDF805230122102112
:10085000204600F077F801224FF40871204600F09E
:1008600041F80121204600F019F8204600F0A4F8D4
:10087000204600F030F80028FAD1204600F0ADF80C
:10088000204600F017F80028FAD10121204600F098
:1008900098F806B010BD000000240140002904D0E3
:1008A000816841F0010181607047816821F0010198
:1008B00081607047014600208968490700D5012002
:1008C0007047C06C80B270470246002012680A422E
:1008D00000D001207047014600208968090700D533
:1008E00001207047C9B2002A03D042680A4342601F
:1008F000704742688A4342607047000010B5426802
:100900000E4B1A400C790B6842EA042213434360F1
:1009100082680B4B1A40D1E9024323434C7942EAE7
:10092000440213438360C26A22F47002097C491EA8
:10093000C9B242EA0151C16210BD0000FFFEF0FFE2
:10094000FDF7F1FF70B5072609290AD9C568A1F19D
:100950000A0404EB4404A640B543A3401D43C5600C
:1009600007E0056901EB4104A640B543A3401D43E0
:1009700005611F23072A09D2446B521E02EB820233
:1009800093409C4391400C43446370BD0D2A09D2AF
:10099000046BD21F02EB820293409C4391400C43B4
:1009A000046370BDC46A0D3A02EB820293409C431B
:1009B00091400C43C46270BD816841F008018160C0
:1009C0007047002904D0816841F4A001816070471C
:1009D000816821F4A00181607047816841F00401C1
:1009E000816070470649002804D0086840F4000080
:1009F00008607047086820F4000008607047000035
:100A00000824014010B5FFF7EFFEBDE81040FFF7E6
:100A1000FDBE10B501F0A6FE20B1BDE810400120DA
:100A200000F0AEB8BDE81040002000F0A9B810B545
:100A300001F098FE38B1002000F0D0F8BDE8104079
:100A4000012002F0A7BA012000F0C8F8BDE810406C
:100A5000002002F09FBA00002DE9F0412A4C2B4EF5
:100A60002088002802D0608838B10FE0002000F014
:100A7000B5F8002002F08EFA1EE03088012809D077
:100A8000002000F0ABF8002002F084FA6088012812
:100A900003D008E0FFF7CBFFF8E7012000F09EF855
:100AA000002002F077FA6088022805D1002000F0CB
:100AB00095F8012002F06EFAA08820B1E088144F6A
:100AC000144D28B10AE0BDE8F041002000F058B80C
:100AD0003088012806D0002000F052F8E088012874
:100AE00004D007E0FFF795FF2F60F7E7012000F043
:100AF00047F82F60E088022804D1012000F040F878
:100B000005482860BDE8F081300000205C0100202D
:100B10001A010020500100202C0100207FB504465E
:100B20000D464FF4A06000F063FE36228DF80C20D5
:100B300001228DF80D208DF80E208DF80F2003A8CE
:100B400000F024FE0121102000F082FFADF80440E7
:100B5000ADF80050094C6946204601F0B5FD012171
:100B6000204601F041FD01221146204601F05AFDC8
:100B70000121204601F03EFD7FBD00000010004035
:100B800001490880704700002A01002038B5012182
:100B9000042000F06BFF4FF48074ADF8004010208B
:100BA0008DF8030003208DF80200054D69462846A4
:100BB00000F026FC2146284600F075FC38BD0000F8
:100BC0000008014010B5FFF7E1FFBDE810404FF409
:100BD0008071014800F067BC0008014001490880AD
:100BE000704700003A000020FEE7C1B2000A40EA68
:100BF000012070472DE9F84F002000904BF6BF7799
:100C000048F28008614E624D40F68F7ADFF8849199
:100C100048F60F7B604C2CE0088800F00F0089F844
:100C2000000078B304EB8001D1F8002C0092BDF8ED
:100C3000002012040AD5D1F8002C02EA0A02C1F8F9
:100C4000002C5649401E51F820008047BDF8000096
:100C500000060ED599F8000004EB8001D1F8002CB5
:100C600002EA0B02C1F8002C4D49401E51F8200049
:100C700080474648443000684A4908800004CBD485
:100C8000BDE8F88FFFE730682880288800F0300042
:100C90006880288800F4405028803068384080F40C
:100CA000005080F0200040EA080030600888C0064C
:100CB00020D4306800EA0B00306000F09FFC306800
:100CC00038402988C90401D580F4805029888904D6
:100CD00001D580F400506988C90601D580F0100064
:100CE0006988890601D580F0200080B240EA0800BA
:100CF0003060C5E730680090BDF80000000520D5E1
:100D0000306800EA0A00306001F0F0F830683840DE
:100D10002988C90401D580F480502988890401D527
:100D200080F400506988C90601D580F010006988F8
:100D3000890601D580F0200080B240EA08003060CA
:100D40009EE7BDF80000000493D5306800EA0A0071
:100D5000306000F0C7FD306838402988C90401D5EB
:100D600080F480502988890401D580F40050698876
:100D7000C90601D580F010006988890601D580F088
:100D8000200080B240EA0800306079E7005C004053
:100D9000720100206201002000500040C0010020CC
:100DA000A40100209A010020810008480844D0F8DE
:100DB000001C490409D5D0F8001C48F68F72114078
:100DC0004CF280021143C0F8001C704700500040F4
:100DD000810008480844D0F8001C490609D5D0F81D
:100DE000001C48F68F72114048F2C0021143C0F84F
:100DF000001C704700500040810006480844D0F8AD
:100E0000001C48F68F62114048F280021143C0F87E
:100E1000001C7047005000402DE9F047DFF8988033
:100E2000D8F8001001F1100528880E7A234F4FF0F2
:100E30003009002801D1042E04D0AC88A04215D876
:100E4000042614E01E480178012903D0072610204B
:100E500038802BE01B4A002112681B4B92B2921C77
:100E600043F81210A7F8009001701FE00226844298
:100E700000D90446A968A0B288478246002000F045
:100E800037FB0146A2B2504601F04CFFA1B2002050
:100E900000F080FF2888001B288068882044688034
:100EA000A7F8009009494FF440500880D8F8000096
:100EB0000672BDE8F0870000640100207401002084
:100EC0005E010020505C0040006000407201002084
:100ED0002DE9F041214E346810342088A1680029A2
:100EE00015D0A0B1A588854200D90546A8B288478B
:100EF00007462088401B20806088284460800020AE
:100F000000F0D6FA0146AAB2384600F02BFD208840
:100F1000134F302538B113492802088000210846B4
:100F200000F038FF3D802088A188884204D33168D2
:100F300003200872BDE8F08118B1316805200872FD
:100F4000F8E7316806200872074800210068074A60
:100F500080B2801C42F810103D80EBE76401002055
:100F60007401002072010020505C004000600040CD
:100F70002DE9F843634E306842780024624D062A1A
:100F8000296801D08AB117E00278520669D18078C9
:100F9000012804D0022804D0032804D061E0CC69E1
:100FA0005FE00C6A5DE04C6A5BE0438823B9C3886C
:100FB000022B01D1037923B1082A39D00A2A3CD067
:100FC0004FE00278530601D1838833B102F07F02EB
:100FD000012A04D0022A0CD043E04C4C41E08A693B
:100FE00040790021904710BB3068807AF8B1474CB7
:100FF00037E0417901F00F0001F070020B0644491F
:1010000007D501EB8001D1F8001CC1F301110901E2
:1010100006E001EB8001D1F8001CC1F301310903A6
:101020003C4B1B7883421CD90AB901B1374C18E0FC
:101030000078400615D1384C13E0027802F07F02A8
:10104000012A0ED1827A62B1428852B9027942B93C
:10105000C288012A05D18A6940790021904700B9E8
:101060002E4C09274FF000083CB13068A0F81280E0
:1010700084610020A047002006E0296830680969E3
:1010800040788847032816D031680A8AA2F57F4342
:10109000FF3B0DD0022811D082B1087800062AD576
:1010A000C8880090009882420CD9009808821AE003
:1010B0000F72BDE8F88330680772FAE74FF0080056
:1010C0000872F6E70FD22868154B90F82C00824280
:1010D00002D283F8008006E0B2FBF0F400FB14209B
:1010E00008B901201870286890F82C008882BDE8A3
:1010F000F843FFF791BE032008720A4900030880F5
:10110000D7E700006401002068010020F5200008F6
:10111000005000404802002085200008CD20000833
:101120005E010020720100207047000010B51D48CC
:10113000B0F80214B0F80024914231D0B0F8021493
:10114000B0F80024914206D2B0F80014B0F802249E
:10115000891A8CB204E0B0F80214C1F580618CB237
:10116000402C00D94024B0F80214B0F802242244E4
:10117000A0F80224B0F80224B2F5806F02D3002256
:10118000A0F8022408442246C02101F0CBFD2146EC
:10119000012000F0FFFDBDE81040012000F020BE5E
:1011A00010BD0000A802002010B50649032001F080
:1011B00063FDC1B2034801F071FDBDE8104003209A
:1011C00000F0C4BD3C0800201FB54FF4C06000F023
:1011D0000FFB06208DF8000001248DF801408DF8EA
:1011E00002408DF80340684600F0D0FA0121042047
:1011F00000F03CFCADF80C4004208DF80F0003A972
:101200000B4800F0FDF80121084600F02FFC0021FA
:10121000084600F0E1F8019400208DF8080008204D
:101220008DF809008DF80A4001A800F083F81FBD71
:10123000000801407FB54FF4C06000F0D9FA2820C3
:101240008DF8000001248DF801408DF802408DF8E2
:101250000340684600F09AFA0121102000F006FCD5
:101260006503ADF80C5004208DF80F0003A90C485D
:1012700000F0C6F80121084600F0F8FB0D2102201D
:1012800000F0AAF8019500208DF8080008208DF8DC
:1012900009008DF80A4001A800F04CF87FBD00005D
:1012A0000010014010B5012000F034F810B10449DD
:1012B00000200880BDE81040012000F025B80000A3
:1012C0005C01002010B54FF40054204600F022F8D5
:1012D00058B108490120088007490880074A0021C1
:1012E0001180074A1080074801802046BDE8104061
:1012F00000F00AB85C01002030000020320000201D
:1013000034000020360000200149086070470000CA
:101310001404014001460020054A12680A40044BAB
:1013200014331B680B4202D0002A00D00120704702
:101330000004014030B51B4A83790168002B2AD094
:1013400013688B431360111D0B680468A3430B6083
:10135000017911440B68046823430B60114C083475
:101360002168036899432160231D19680568A94312
:1013700019604179102905D011440A6800680243B8
:101380000A6030BD21680268114321601968006855
:101390000143196030BD0079104402688A4302603D
:1013A00030BD00000004014010B503A001F016FE9E
:1013B00008490320086010BD75736220656E74656E
:1013C00072206C6F7720706F776572206D6F646527
:1013D0000D0A00007002002010B58A07120F0F23BB
:1013E000934021F00304054921448C689C438C60A0
:1013F0008B68904003438B6010BD000000000140EB
:101400002DE9F0410022CC7804F00F03E40601D569
:101410008C7823430C784FF00F0714F0FF0F4FF038
:10142000010C1CD005680CFA02F40E882640A64276
:1014300011D1960007FA06F825EA080503FA06F81E
:1014400048EA0505CE78282E02D0482E02D002E0C8
:10145000446100E00461521C082AE4D305600A8854
:10146000FF2A1ED94568002202F108060CFA06F48C
:101470000E882640A64210D1960007FA06F825EA03
:10148000080503FA06F848EA0505CE78282E00D1AB
:101490004461CE78482E00D10461521C082AE3D35F
:1014A0004560BDE8F081416170470161704700000F
:1014B0000549096889B201EBC0000449001D31F8F3
:1014C000100080B270470000505C00400060004097
:1014D0000549096889B201EBC0000449801D31F853
:1014E0001000C0F309007047505C004000600040ED
:1014F0000449096889B201EBC000034931F81000C2
:1015000080B27047505C00400060004010B50B4C4A
:101510000146072301222046FFF714FA0121204645
:10152000FFF74FFA02212046FFF7CEF90028F9D045
:101530002046BDE81040FFF7C4B900000024014078
:1015400070B50E460025012406E01020FFF7DEFFEF
:10155000284485B2641CE4B2B442F6D9B5FBF6F077
:1015600070BD000010B50B480168001D0468001D27
:101570000068084400280BD00822074900F06EF8E4
:10158000054920460422BDE81040103100F066B83D
:1015900010BD0000E8F7FF1F7A01002010B51421EC
:1015A0001020FFF7CDFFFEF770FFFEF773FF4FF03F
:1015B00066320B4BFEF788FEFEF77FFFFEF76AFFF1
:1015C000084A094BFEF77DFE084A094BFEF7EEFE7E
:1015D0000022084BFEF7D1FDBDE81040FEF76DBFBD
:1015E00066664A3FE17A14AE47E1F63F22FDF675A2
:1015F000E09C713F00003940FEE7000010B5144C3C
:101600002068017A02290AD0042908D006290BD0C3
:10161000082021680872BDE8104000F0D9B9FFF732
:10162000FBFB2068007AF4E74178052909D10178AD
:10163000490606D1C07800F01BFB06480068006A26
:10164000804705480068806880470820E1E700007F
:10165000640100206C01002068010020F0B5002327
:101660000A2530263727002412E0B5EB107F04D975
:1016700006EB107C01F813C003E007EB107C01F8C7
:1016800013C0000101EB430C8CF801405B1CDBB282
:101690009342EAD3F0BD10B5FFF796FDBDE81040C8
:1016A000FFF7C8BD10B5064C06A001F097FCA17A63
:1016B0000A4811B10521016010BD0121016010BD72
:1016C0008C0200206C65617665206C6F7720706FEE
:1016D000776572206D6F64650D0A0000700200204E
:1016E00038B50121082000F0C1F92320ADF8000031
:1016F00010208DF8030003208DF80200084C694685
:101700002046FFF77DFE01212046FFF7CEFE022195
:101710002046FFF7CAFE20212046FFF7C6FE38BD4F
:10172000000C0140FEE700002DE9F04107460125CD
:10173000094E012406E03188012901D100F026F983
:10174000641CA4B237F91500A042F4DA6D1CADB2E6
:10175000072DEED9BDE8F0812A01002070477047BF
:1017600008B54FF4C06000F043F81D208DF800006C
:1017700000208DF8010002208DF8020001208DF874
:101780000300684600F002F808BD000070B50F23A2
:10179000C27801260178002A1ED0144A126802F489
:1017A000E062C2F5E062120AC2F10404D340457857
:1017B000A54082781A402A43120101F1E02181F804
:1017C0000024007800F01F018E404009800000F1E5
:1017D000E020C0F8006170BD01F01F00864048099C
:1017E000800000F1E020C0F8806170BD0CED00E0E9
:1017F0000249084302490860704700000000FA05EA
:101800000CED00E070B50220314D29684C780A7863
:10181000530606D002F07F0101292ED0022931D0D3
:101820003AE0092C06D0052C07D0032C12D0012C4D
:1018300018D031E000F0BCFC2EE0C8787F2805D835
:10184000887818B9888808B9887A08B108203CE0F7
:10185000002021E0CA78012A1ED18988E1B900F070
:10186000C3FC19E0CA78012A16D18A88A2B9497A3C
:10187000890611D500F07EFB0EE00B2C0CD100F098
:101880000FFD09E0012C02D0032C03D004E000F08E
:1018900071FB01E000F0BAFC30B10E49E0B209681A
:1018A00049698847032802D018B108200DE00920B3
:1018B0000BE00620084900220968084B89B2891C00
:1018C00043F81120064A302111802968087270BD42
:1018D0006401002068010020505C0040006000406E
:1018E0007401002010B5104C2068007A02280ED038
:1018F00004280CD003280CD005280AD007280DD0C6
:10190000082021680872BDE8104000F061B8082086
:10191000F7E7FFF7DDFA2068007AF2E7034800688E
:10192000C06880470820ECE76401002068010020BF
:1019300038B50121202000F099F84020ADF80000D2
:1019400010208DF8030003208DF80200044C694636
:101950002046FFF755FD40212046FFF7A4FD38BD86
:1019600000140140521C5208064B03EB4101002AAF
:1019700006D031F8043B20F8023B521E002AF8D171
:101980007047000000600040704700002DE9F04102
:101990000D4991FBF0F084B20C4F4FF48076314644
:1019A0003846FFF782FD0A25B4FBF5F002F012F885
:1019B00031463846FFF777FD04EBC400B0FBF5F085
:1019C000BDE8F04102F006B820A107000008014080
:1019D00010B50B4890F82C10002000F07DF9094854
:1019E0000068007A082805D1074A41021180074A99
:1019F00010211180092801D0002010BD012010BD48
:101A0000F801002064010020720100207401002010
:101A100010B5012000F0ECFF012106480160064AE4
:101A200000210160031D19604FF4E0511180016035
:101A3000002010BD405C004070010020034A516846
:101A400021F4404101435160704700000010024002
:101A5000054A002903D0D1690143D1617047D1699A
:101A60008143D1617047000000100240054A0029FF
:101A700003D09169014391617047916981439161FC
:101A8000704700000010024010B5264A516801F06E
:101A90000C01254B002927D0042927D0082927D05D
:101AA0000360516801F0F0010909204B5C5C01689A
:101AB000E1404160546804F4E064240A1C5D21FAAA
:101AC00004F48460546804F46054E40A1B5DD94053
:101AD000C160526802F44042920B144B1B1F9A5C87
:101AE000B1FBF2F1016110BD0360DAE70360D8E7F2
:101AF000516801F47011536803F48033022404EB3D
:101B0000914133B153689B0307D5094B5943016099
:101B1000C7E7074B59430160C3E7034B59430160D3
:101B2000BFE700000010024000127A0018000020F9
:101B300000093D000149086070470000D80042429A
:101B40002DE9F041234C072800D020702078214D4A
:101B50000626052204272049062838D2DFE800F0AF
:101B6000030C12171F28686810B12270BDE8F081BD
:101B700000F034F82670F9E700F030F82770012003
:101B80006860F3E70220607003202070EEE7607861
:101B9000401E607060780028E8D12770E6E708688A
:101BA00080B240F01000086022700A206070DDE70B
:101BB0006078401E607060780028D7D1086880B2D5
:101BC00020F010000860267000206860CEE72670C4
:101BD000CCE7000078020020405C004010B5064CC5
:101BE000206880B220F004002060FFF75BFD4FF416
:101BF0003F40206010BD0000405C00400748006886
:101C0000052809D106490868401C0860062803D148
:101C100000200860FFF78ABA7047000070020020B9
:101C200094010020704700001CB5FEF733FC064A03
:101C3000064B12881B88CDE9003202460B4604A0F1
:101C400001F076FF1CBD00003A0000202C000020AF
:101C500054454D252E326620256420256400000061
:101C6000024920F00700086070470000505C004007
:101C7000F0B50E490E7800210D4F48F68F7C48F2E2
:101C800080050BE0CBB207EB8302D2F8004C04EAEC
:101C90000C041C432C43C2F8004C491CB142F1D344
:101CA000044940F080000860F0BD000048020020B8
:101CB000005000404C5C0040054A21F001011268D0
:101CC00092B202EBC000034A001D42F810107047A8
:101CD000505C0040006000400E4A126892B202EB75
:101CE000C0000D4A801D02EB40023E290AD9480976
:101CF000C90601D1401E80B24FF4004141EA802064
:101D0000106070474808C90701D0401C80B28002AB
:101D100010607047505C00400060004082000A483C
:101D20000244D2F8000C4BF68F731840CB0401D557
:101D300080F48050890401D580F4005048F280017D
:101D40000843C2F8000C704700500040810008486A
:101D50000844D0F8001C4BF68F72114081F480517A
:101D600081F4005148F280021143C0F8001C704712
:101D700000500040054A21F00101126892B202EBC6
:101D8000C000034A42F8101070470000505C004049
:101D900000600040044A126892B202EBC000034A9D
:101DA000801C42F810107047505C004000600040FA
:101DB00082000A480244D2F8000C48F6BF7318406B
:101DC000CB0601D580F01000890601D580F02000F7
:101DD00048F280010843C2F8000C704700500040F0
:101DE000810008480844D0F8001C48F6BF72114032
:101DF00081F0100181F0200148F280021143C0F807
:101E0000001C704700500040820005481044D0F884
:101E1000002C48F68F131A400A43C0F8002C704774
:101E200000500040AFF300800CB5002201920092F8
:101E30002748016841F4803101604FF4A0630168D4
:101E400001F4003100910199491C0191009911B9E7
:101E500001999942F3D10168890302D501210091CA
:101E600000E000920099012930D11A490A6842F035
:101E700010020A600A6822F007020A600A6842F04B
:101E800002020A604168416041684160416841F472
:101E900080614160416821F47C114160416841F4F6
:101EA000E8114160016841F08071016001688901B9
:101EB000FCD5416821F003014160416841F0020115
:101EC00041604168C1F381010229FAD10CBD0000D3
:101ED000001002400020024010B50020FFF72AFE4B
:101EE0000121BDE81040C805FFF7B2BD38B51E4856
:101EF000006880B2001D41001C48095A89B200EBFD
:101F0000410100911A4D2868027A092A1DD00978EA
:101F100001700099491C0091097841700098C01C1B
:101F20000090009C0088A41CFEF75FFE2968488092
:101F3000A41C00942088009CA41CFEF756FE29686F
:101F40008880A41C00942088C88028680121017220
:101F5000C08828B1FFF70CF8BDE83840FFF738BD5E
:101F6000FFF750FCF8E70000505C004000600040C4
:101F7000640100202DE9F0413D480068017801F03E
:101F80007F01002904D0022908D00220BDE8F08199
:101F9000417A01F0DF0141720020F7E7418809B979
:101FA000017909B10220F1E7324B417921F0800437
:101FB000314E0A0607D506EB8402D2F8002CC2F394
:101FC0000112120106E006EB8402D2F8002CC2F3E3
:101FD000013212031D78A5420DD962B1807A50B149
:101FE000080612D506EB8400D0F8000CC0F30110EF
:101FF000012802D024E00220C8E7E0B2FEF7E8FEA4
:10200000E0B23021FFF7D4FE1AE006EB8405D5F8E4
:10201000000CC0F30130012812D14BF68F7848F242
:1020200080079CB1E0B2FEF7BFFED5F8000C00EAD5
:10203000080080F4805080F400503843C5F8000C4C
:102040000E4800684069804700209FE70C4890F8E0
:102050002C100020FFF740FED6F8000C00EA080024
:1020600080F4805080F400503843C6F8000CE7E755
:102070006401002048020020005000406C01002054
:10208000F801002010B5074C002806D0064800686B
:102090000068804720680A3010BD2168012008824E
:1020A000002010BD640100206C010020064A136866
:1020B0005A8A002802D00868104470478888801A1D
:1020C00018820020704700006401002010B5074C02
:1020D000002806D0064800688068804720680C30D9
:1020E00010BD216801200882002010BD640100207D
:1020F0006C01002010B52A49002809680DD0294834
:10210000002202800A7853060BD002F07F02012AD7
:102110001FD0022A1FD0002010BD022008820020FC
:1021200010BD497A8A0604D5027842F00202027094
:1021300003E0027802F0FD020270490604D501783E
:1021400041F00101017025E0017801F0FE0101700C
:1021500020E0144810BD4A7902F00F011306124A1C
:102160000CD502EB8101D1F8001CC1F3011101294A
:1021700010D1017841F0010101700BE002EB810107
:10218000D1F8001CC1F30131012903D1017841F0DC
:10219000010101700548006800698047014810BDD1
:1021A0006401002060010020005000406C0100200C
:1021B00010B50A480A4A00685278C178914203D89B
:1021C00082780AB982880AB1022010BD817205485E
:1021D000006840688047002010BD000064010020B6
:1021E000480200206C01002010B506480068417AC2
:1021F00041F02001417204480068C0698047002016
:1022000010BD0000640100206C01002070B5204862
:102210000268517921F080041E4B21F080000D06E8
:1022200003EB800005D5D0F8003CC3F301131B017C
:1022300004E0D0F8003CC3F301331B03164D2D78A6
:10224000A54213D954888CB983B1927A72B1090628
:1022500048F280020CD5D0F8001C48F6BF73194034
:1022600081F010011143C0F8001C0BE0022070BD8A
:10227000D0F8001C4BF68F73194081F48051114344
:10228000C0F8001C0548006880698047002070BDC8
:102290006401002000500040480200206C01002032
:1022A00010B50F4C0F4A20681268C17892694079C6
:1022B000904721688A7A8AB118B9087908B988786C
:1022C00008B1022010BD08480068C0688047206837
:1022D0004179C172C1780173002010BD022010BD88
:1022E00064010020680100206C01002078B4002007
:1022F000002100911A4B19688DB21A491A4A01EB54
:102300008004D4F8004CA4B242F82040401C0828B5
:10231000F5D345F48060186040F00100186020F0AB
:1023200001051D600E48001D04686405FCD54FF6CC
:10233000FF340460002052F8204001EB8006A4B274
:10234000C6F8004C401C0828F5D345F0080018607A
:10235000186880B240F00400186078BCFFF724B819
:10236000405C0040005000407C0800204FF0E0211D
:10237000042804D0086920F0040008617047086947
:1023800040F004000861704710B50F48016841F043
:102390000101016041680D4A1140416001680C4A29
:1023A00011400160016821F480210160416821F43D
:1023B000FE0141604FF41F018160FFF733FD0549C5
:1023C0004FF00060086010BD001002400000FFF8F0
:1023D000FFFFF6FE08ED00E010B500F005F8BDE8DF
:1023E000104000F057B8000008B501210820FFF7A1
:1023F0003DFB01210820FFF739FB0120ADF800006B
:1024000018208DF8030003208DF802006946024869
:10241000FEF7F6FF08BD0000000C014070B5174C38
:102420000121204600F0F2F8002826D0144A5088F6
:10243000401C81B251801348002305880F483C306E
:10244000012D14D0038010480088814209D91088DA
:10245000401C81B211800D480088814200D3138056
:1024600053802046BDE87040012100F0C0B8084DFF
:10247000168835F816500580E5E770BD0004004069
:10248000280000203A000020380000201801002019
:102490003C00002030B587B001210220FFF7D8FAB8
:1024A00040F2FF30ADF81400C720ADF81000002452
:1024B000ADF81640ADF81240144D04A9284600F0BE
:1024C00003F96021ADF800100121ADF80210ADF85C
:1024D00006400221ADF808106946284600F0ACF825
:1024E0000821284600F0EAF80121284600F070F89B
:1024F0000121284600F07EF801221146284600F00E
:1025000091F8FFF72DF907B030BD0000000400403E
:102510002DE9F041234F0121384600F077F80028DB
:102520003ED0214D2888401C2880204C4FF00006CA
:102530002088010404D5C0F30D0001F0CBF92680FA
:10254000FEF78AFA1A484FF4FA74008801280ED16F
:102550002888B0FBF4F104FB110040B9154801686C
:1025600081F002010160016881F02001016028888A
:10257000B0FBF4F104FB110028B9FFF70FF80E4986
:102580000860FFF751FB2888B0FBF4F104FB110051
:1025900000B92E803846BDE8F041012100F027B88F
:1025A000BDE8F081001000405401002076010020B9
:1025B0002C0000200C0C01405801002010B5FFF742
:1025C0008FF8BDE81040232140F2E730FEF7A6BAAD
:1025D000002904D0018841F0800101807047018802
:1025E00021F0800101807047C94301827047C943CF
:1025F00001827047002904D0018841F00101018067
:102600007047018821F001010180704702460020D7
:10261000138A0B4092890A40002B02D0002A00D076
:1026200001207047002A03D082890A4382817047C3
:1026300082898A438281704770B5028C22F480724D
:102640000284028C8388848B24F0700424F00304B9
:102650000D88254322F400720E894FF6FF7404EAB8
:10266000062616434A8804EA02223243114EB0423B
:1026700002D0114EB04217D122F400664A8904EA12
:102680000222324322F480668A8804EA022232431C
:1026900023F4805323F400538E8904EA06161E4364
:1026A000CB8904EA0313334383808583C9888187F8
:1026B000028470BD002C014000340140828B22F066
:1026C00008020A438283704730B502881B4C1C4DB8
:1026D000A0420DD0A8420BD0B0F1804F08D0194BCA
:1026E000984205D0184B984202D0184B984203D11B
:1026F00022F070034A881A43154B984206D0154BB6
:10270000984203D022F44073CA881A4302808A8810
:1027100082850A880285A0420AD0A84208D00E4AC3
:10272000904205D00D4A904202D00D4A904201D10C
:10273000097A01860121818230BD0000002C014010
:10274000003401400004004000080040000C00403C
:1027500000100040001400400040014000440140CF
:1027600000480140044805490068884201DB012017
:1027700070470020704700005801002000001442FC
:1027800070B5164C40F22551204600F08FF8002815
:102790000ED0204600F024F9C1B2114A108803047B
:1027A00006D444044FF0000307D50A2901D0138052
:1027B00070BD40F40040108070BD0D290AD0094D55
:1027C000C0F30D042955401C80B21080C728F3D9EE
:1027D000138070BD40F48040108070BD003801400F
:1027E000800200209C080020002904D0818941F447
:1027F000005181817047818921F4005181817047A6
:1028000010B50D490020A1F80204A1F800040B49FD
:1028100008800B4C0BA0217900F0E0FB61790FA040
:1028200000F0DCFBA17914A000F0D8FB19A021680E
:1028300000F0D4FB012010BDA8020020760100208A
:10284000E00100206C696E65636F64696E672E66D7
:102850006F726D61743A25640D0A00006C696E65D3
:10286000636F64696E672E706172697479747970D0
:10287000653A25640D0A00006C696E65636F6469D2
:102880006E672E64617461747970653A25640D0A0F
:10289000000000006C696E65636F64696E672E628C
:1028A0006974726174653A25640D0A0070B500247C
:1028B00040F66A12C1F3421301F01F05012606FA21
:1028C00005F2012B0CD0022B0DD0838A1340090A8C
:1028D0008E40008830400BB100B10124204670BD0D
:1028E00083891340F3E7038A1340F0E710B540F6FD
:1028F0006A13C1F3421301F01F040121A140012B0F
:1029000007D0022B07D014303AB102680A430260A4
:1029100010BD0C30F8E71030F6E702688A43026019
:1029200010BD000030B585B004460D46208A4CF637
:10293000FF710840E98801432182A0894EF6F31116
:102940000840A9882A8911436A8902431143A18159
:10295000A08A4FF6FF410840A9890143A182684639
:10296000FFF792F81D48844201D1039800E00298D5
:10297000A189090408D500EBC00101EB001029680A
:102980004900B0FBF1F007E000EBC00101EB0010E3
:1029900029688900B0FBF1F06422B0FBF2F1090173
:1029A0000B096FF018056B4300EB8300A3891D042E
:1029B0004FF0320307D503EBC000B0FBF2F000F09C
:1029C0000700084306E003EB0010B0FBF2F000F054
:1029D0000F000843208105B030BD000000380140E1
:1029E0008088C0F3080070474FF48020FEF78CBC4D
:1029F000002802D002A000F0F1BA07A000F0EEBA61
:102A00007573622070756C6C20757020656E6162E4
:102A10006C650D0A000000007573622070756C6CA7
:102A20002075702064697361626C650D0A00000096
:102A30000649054808600222027205484860054AB6
:102A40008A600068004700008C02002064010020BA
:102A5000F80100204C0200203EB54FF480242046AF
:102A6000FEF752FC009408208DF8050001248DF833
:102A700006406846FEF75EFC14208DF808008DF8CD
:102A8000094000258DF80A508DF80B4002A8FEF78A
:102A90007DFE2A208DF808008DF8095002A8FEF767
:102AA00075FE3EBD2DE9F04188B00024504D2868E8
:102AB000504E70807088DFF84081B8F800100840F0
:102AC000800507D54FF6FF5028603078401C3070E5
:102AD000FFF794F87088B8F800100840000401D59A
:102AE000FEF788F87088B8F800104FF6FF370840F6
:102AF000400503D52F604148406880477188B8F889
:102B000000000140890402D54DF6FF7129607188EB
:102B10000140C80405D54EF6FF7028600020FFF77D
:102B20000FF87088B8F80010084000050BD534483D
:102B3000007810B1FFF7DAFB02E00220FFF700F89F
:102B40004FF2FF7028607088B8F800100840C00588
:102B50004AD54FF6FF6028602548001D00684FF0F9
:102B60000003000439D57068401C70607068032849
:102B700034D91F48001F016809072FD4016889B2A2
:102B8000B16020496A4601EB840CDCF800CC1FFAE6
:102B90008CFC42F824C0641C082CF4D3B46844F0C4
:102BA0000104B460B468A4B20460B46824F0010401
:102BB000B460B468A4B2046028684005FCD52F60F6
:102BC000002052F8204001EB8005A4B2C5F8004C6B
:102BD000401C0828F5D3736000E0736008B007203C
:102BE000BDE8F041FEF7ACBF08B0BDE8F0810000E1
:102BF000445C00409801002070010020F801002092
:102C00007402002000500040FFF74CBF10B504468E
:102C100001210420FEF72AFF0C492CB108684FF669
:102C2000FD721040086010BD086880B240F00200DC
:102C300008600748016821F47F210160016841F4C0
:102C40004C31016003490020086010BD405C004029
:102C500004080140B00121420549002008600549EF
:102C60004FF43F4008800249091F08600020704768
:102C7000445C00407001002070B50E4600F07F05F6
:102C80002846FEF725FC04462846FEF711FC0146BF
:102C900022463046FEF766FE204670BDF0B50023A2
:102CA0000026134D1DE0C45C2A88170417D457046E
:102CB00007D50A2C01D02E8011E042F400422A8070
:102CC0000DE00D2C10D0DFF82CC0C2F30D070CF86E
:102CD0000740521C92B22A80C72A00D92E805B1C62
:102CE000DBB28B42DFD3F0BD42F480422A80F6E7AC
:102CF00076010020740700200849B1F800248854A8
:102D0000B1F80004401CA1F80004B1F80004B0F5CB
:102D1000806F02D10020A1F800047047A8020020B3
:102D2000FEE7000010B5521C5208084B03EB4101AE
:102D3000002A09D003784478801C43EA042321F850
:102D4000043B521E002AF5D110BD00000060004077
:102D500010B500210F4A2128126802D0202807D080
:102D60000FE0107800F07F0021280AD10A4908E01E
:102D7000107800F07F00212800D10849084B20205E
:102D8000187029B19161002050828847002010BD41
:102D9000022010BD64010020BD2D0008392F00085D
:102DA000DC0100200149FFF781B90000F00100209B
:102DB0000149FFF77BB90000E8010020002801D09D
:102DC00003487047034908200968088200207047BB
:102DD000E00100206401002005490968C978042940
:102DE00001D900207047034A02EBC101FFF75EB929
:102DF0006401002028020020002901D00220704731
:102E0000012801D90220704700207047084909684D
:102E1000097801F07F01212903D1022803D022285B
:102E200003D0022070470020704700207047000048
:102E30006401002010B53348002100688172324AD5
:102E4000D2794272C1720020FEF70AFF4FF400717E
:102E50000020FEF7D9FF10210020FEF7A9FF402136
:102E60000020FEF729FF80210020FEF783FF0020CD
:102E7000FDF7C2FF254890F82C100020FEF72CFF2C
:102E80000020FEF763FF00210120FEF7BDFFC021F7
:102E90000120FEF76FFF20210120FEF789FF0021AE
:102EA0000120FEF73BFF4FF4C0610220FEF7ACFFAC
:102EB0004FF480710220FEF75DFF00210220FEF733
:102EC0002DFF20210220FEF773FF00210320FEF7D3
:102ED0009BFF4FF488710320FEF7EEFE4021032094
:102EE000FEF7FAFE4FF440510320FEF717FF0021D2
:102EF0000320FEF75DFF0020FEF7BAFE0449012023
:102F0000086010BD640100207A3B0008F801002031
:102F1000700200200348807A002802D00249052070
:102F2000086070478C0200207002002001490420D4
:102F30000860704770020020002801D003487047E5
:102F4000034908200968088200207047E00100203A
:102F50006401002010B5044C2078202803D1FFF72D
:102F60004FFC0020207010BDDC01002070470000E5
:102F700010B5FEF7F7FA0548002400688472FEF7E2
:102F800047FDFFF769FE0248046010BD64010020A0
:102F90007002002070B504460E4D2888A04217D05C
:102FA0000D4E4CB902213046FEF77FFA2021304603
:102FB000FEF77BFA00202880012C09D1022130463F
:102FC000FEF771FA20213046FEF76FFA01202880C3
:102FD00070BD00002C000020000C01400FB4054B18
:102FE00010B503A9044A029800F0ECF810BC5DF893
:102FF00014FB0000093A00088402002037B514468B
:103000000846064B6A46214600F0DCF8044669464D
:10301000002000F05AFC20463EBD0000CB380008DE
:1030200002E008C8121F08C1002AFAD17047704791
:10303000002001E001C1121F002AFBD170470000EF
:103040002DE9FF5F82B00021DDE90430020DDDF8DB
:1030500040B0034318D044F61050A2F2FF3242436E
:103060001514119801281FD0A5EB0B00401C5FEA36
:10307000000A4FF000064E4FDFF83891B046504638
:1030800015D5CAF1000413E0119801244AA30128C0
:1030900001D16FEA0B010298119AC0E90031C0E931
:1030A000024206B0BDE8F09FCBF10000DFE7044626
:1030B0000021404A491842EB0450CDE9001012E0CB
:1030C000E00707D032463B4640464946FDF7FCF84C
:1030D0008046894632463B4610461946FDF7F4F8CD
:1030E00006460F466410002CEAD1DDE90401DDE953
:1030F0000023BAF1000F06DAFDF7E6F842464B4628
:10310000FDF7E2F805E0FDF751F942464B46FDF7C1
:103110004DF904460E460022284BFDF7FFFA03D86E
:103120004FF0FF30014607E00022254B2046314694
:10313000FDF723F8FDF7D9FA102409E0002C0ADB8B
:103140000A220023FDF7EBF9039B30321A55641E67
:1031500050EA0102F2D1641C039AC4F11103144431
:10316000119A012A03D0012208430DD10AE0084335
:1031700004D000204FF0110B119072E7A3EB0B0568
:103180006D1E0DE05B4504DD4FF0000205F1010509
:1031900004E003DA4FF00002A5F10105002AECD0AB
:1031A00002981199C0E90231C0E9004579E70000B1
:1031B000000014400000F03F300000000000F04329
:1031C0000000E03F2DE9FF4F95B09A46884606463D
:1031D0000025EEE1252877D100242746F94A012170
:1031E000039400E0044316F8013F203B01FA03F08A
:1031F0001042F7D130782A2811D06FF02F033078A1
:10320000A0F13002092A16D8039A44F0020402EB16
:10321000820203EB42021044761C0390EFE758F859
:10322000042B0392002A03DA504244F40054039022
:1032300044F00204761C30782E2816D116F8010FBF
:1032400044F004042A280DD06FF02F023078A0F14A
:103250003003092B09D807EB870302EB4303C71898
:10326000761CF3E758F8047B761C30786C280FD076
:1032700006DC4C2817D068280DD06A2814D104E049
:10328000742810D07A280FD10DE044F400140AE01D
:1032900044F4801401E044F440147278824202D174
:1032A00004F58014761C761C307866280BD013DC6D
:1032B000582877D009DC002875D04528F6D0462854
:1032C000F4D047281AD193E118E0632835D0642858
:1032D00079D0652812D18BE1702873D008DC67287B
:1032E000F1D069286FD06E280DD06F2806D1ACE0E0
:1032F00073282CD0752874D0782853D0524617994B
:1033000090476D1C54E1C4F30250022809D00328F1
:103310000DD0D8F8001004280DD00D6008F1040875
:1033200046E1D8F80010EA17C1E90052F6E7D8F8EC
:1033300000100D80F2E70D70F0E718F8041B8DF80F
:10334000001000208DF80100EB46012003E058F842
:1033500004BB4FF0FF3061074FF0000102D40DE0D5
:1033600009F101018946B9420FDA8145F8DB1BF802
:1033700009100029F4D108E009F1010189468142D0
:10338000FADB1BF809100029F6D103985346A0EB8D
:10339000090721463846179A00F080FA284400EBC6
:1033A000090507E044E008E10DE01BF8010B524677
:1033B00017999047B9F10109F7D25346214638468B
:1033C000179AF2E039E00A21C4F302524FF0000BE1
:1033D0000091022A06D058F8040BC117032A09D01D
:1033E0000AE023E008F1070020F00702F2E80201FA
:1033F000904605E000B2C117042A01D140B2C117BE
:10340000002906DA0A460021404261EB02012D2222
:1034100002E0220504D52B228DF80420012203E0CE
:10342000E20701D02022F7E7914657E00A2100E0A9
:1034300010214FF0000B00910BE010214FF0000B1A
:1034400044F004040827009103E008204FF0000B2B
:103450000090C4F30252022A05D058F8040B002150
:10346000032A08D008E008F1070020F00702F2E87C
:103470000201904603E080B2042A00D1C0B24FF0AE
:10348000000922072AD53278702A07D0DDF800C05B
:103490008CF0100C5CEA0B0C05D00EE040228DF88D
:1034A0000420012208E050EA010306D030238DF801
:1034B00004308DF8052002229146009B83F008031A
:1034C00053EA0B030AD150EA010201D1620705D584
:1034D00030228DF804204FF001097F1E3278582ADF
:1034E00004D039A20C920CAA02920BE03BA2F9E79D
:1034F0005B46009AFDF713F80C9B9B5C029A521EE8
:103500000292137050EA0102F2D1029804A9081A3B
:1035100000F1200B600702D524F4803400E001277D
:103520005F4502DDA7EB0B0000E0002000EB0B0184
:10353000009003984944401A0390E00306D4534690
:103540002146179A039800F0A9F90544002706E0E0
:1035500001A85246C05D179990476D1C7F1C4F45CE
:10356000F6DBE0030CD553462146179A039800F08A
:1035700095F9054404E030205246179990476D1C98
:103580000099481E00900029F5DC08E00298029995
:1035900052460078491C0291179990476D1CBBF167
:1035A0000001ABF1010BF1DC5BE100F065F90544D2
:1035B000761C307800287FF40DAE19B02846BDE89F
:1035C000F08F0000092801003031323334353637AE
:1035D000383961626364656600000000303132335F
:1035E00034353637383941424344454600000000FF
:1035F000600700D4062708F1070020F00700F0E874
:103600000223804603F0004C5FEA0C0001D097A033
:1036100009E0200501D596A005E0E00701D095A0BE
:1036200001E0AFF24C001390307823F0004365289E
:103630000CD006DC452809D046281DD047287FD16C
:103640003BE0662818D067287AD136E00021112F98
:1036500001DB112000E0781CCDE9000104A90CA8D1
:10366000FFF7EEFCDDE90D010C9A4FF0000B07F1BE
:103670000109109200914EE04FF000400097CDE913
:10368000011004A90CA8FFF7DBFCDDE90D020C9B7F
:103690000F994FF0000B91461093009211B9791CCD
:1036A00000EB0109B7EB090003D4C0F1FF3B07F1C0
:1036B0000109A9EB0700019042E0012F00DA012780
:1036C0000021112F01DD112000E03846CDE9000175
:1036D00004A90CA8FFF7B4FCDDE90D010C9A0091D8
:1036E0004FF0000BB946109221070FD4009A4A45BB
:1036F00003DA914601E0A9F10109B9F1010F05DDF5
:10370000109AA9F10101515C3029F4D0B84202DAD3
:1037100010F1040F03DA0121CDE9011010E00028B7
:1037200003DC8344A9EB000102E0411C494500DDB4
:103730008946A0EB0B00401C01904FF00040029026
:10374000200705D40198484502DB4FF0FF30019077
:1037500000208DF84B0002980DF14B07B0F1004F9F
:1037600025D002200C902B200D90029800280CDA16
:10377000404202902D200D9007E00A210298FCF7AC
:10378000B8FE3031029007F8011D0C99481E0C90CC
:103790000029F2DC02980028EFD1791E0D980870FC
:1037A000307800F0200040F0450007F8020D11A825
:1037B000C01BC01D02901398007800B1012000EBDF
:1037C0000901019801EBE071029801440398401A45
:1037D000401E0390E00306D453462146179A0398EF
:1037E00000F05CF805441398007818B15246179918
:1037F00090476D1CE00323D553462146179A039842
:1038000000F04CF805441BE0BBF1000F07DB00980B
:10381000584504DD1098179910F80B0001E017992E
:1038200030205246904701980BF1010B401E05F1E4
:103830000105019004D12E205246179990476D1C26
:10384000B9F10001A9F10109DEDC05E017F8010B6F
:103850005246179990476D1C0299481E0290002904
:10386000F4DC53462146179A03989EE62D0000008B
:103870002B000000200000002DE9F0410446002547
:103880001E461746880404D405E039462020B04778
:103890006D1C641EF9D52846BDE8F0812DE9F04184
:1038A000044600251E469046C80301D5302700E097
:1038B0002027880404D505E041463846B0476D1CF2
:1038C000641EF9D52846BDE8F0810A68531C0B60D8
:1038D00010707047F0B504283DD11F48022701251C
:1038E0000678427883781D49C07800244C2E10D188
:1038F000452A0ED1442B0CD1302800D10C80312820
:1039000001D10D804C80322800D14D80332800D168
:103910004F80422E10D1452A0ED1502B0CD1302889
:1039200000D18C80312801D18D80CC80322800D10B
:10393000CD80332800D1CF80412E0CD14C2A0AD122
:103940004D2B08D1064A302800D11480312802D1ED
:1039500015804C80CC80F0BD740700203000002022
:103960005C01002010B56FF00400FEF7FFFC094871
:1039700009490068B0FBF1F00849C0B2087000EBDB
:103980004002C2EBC0104FF6FF7202EAC00048804E
:1039900010BD00000000002000127A008802002004
:1039A0000B49498848434FF0E021486100238B616F
:1039B000086940F0010008610869C20701D0C0032E
:1039C000FAD5086920F0010008618B61704700009A
:1039D000880200200B49097848434FF0E0214861F4
:1039E00000238B61086940F0010008610869C20783
:1039F00001D0C003FAD5086920F0010008618B618D
:103A0000704700008802002004490A885206FCD54D
:103A1000024AC1B2121D11807047000000380140F7
:103A2000FFF7A0FFFDF737FEFCF7ECFFFEF7C6FD42
:103A3000FEF7D2FCFDF7C6F80120FFF7ABFA002035
:103A4000FDF7CCF84FF4A060FDF7D2FE4FF4E13063
:103A500000F01EF8FDF76CFF4FF4E160FFF7A0FFE8
:103A60000020FFF7D3F84FF42F70FFF799FF0120E4
:103A7000FFF7CCF8FEF730FAFEF7EEFFFEF7D8FFBF
:103A8000024C2068FDF750FEFBE7000050010020CB
:103A900070B586B00546012144F20400FDF7E6FF4B
:103AA0004FF40070ADF8140003248DF8164018216F
:103AB0008DF817101C4E05A93046FDF7A1FC3115F5
:103AC000ADF8141004218DF8171005A93046FDF744
:103AD00097FC25208DF800008DF801408DF80240FC
:103AE00001208DF803006846FDF750FE0195002087
:103AF000ADF80800ADF80A00ADF80C00ADF8100004
:103B00000C20ADF80E00094C01A92046FEF70AFF73
:103B1000012240F225512046FEF7E8FE0121204611
:103B2000FEF762FE06B070BD00080140003801409B
:103B30000FB438B505AA0B480499FFF75FFA0020C7
:103B400000900848FCF712FB84B20023054D04E006
:103B5000E85CFFF7D1F85B1C9BB2A342F8D338BCFA
:103B60005DF814FBAC0600201201000202000040C8
:103B700083044057000201020301090243000201CD
:103B800000C03209040000010202010005240010F7
:103B90000105240100010424020205240600010796
:103BA0000582030800FF09040100020A0000000763
:103BB00005030240000007058102400000040309DC
:103BC000042603530054004D006900630072006F27
:103BD0000065006C0065006300740072006F006E89
:103BE000006900630073003203530054004D00333A
:103BF00000320020005600690072007400750061F8
:103C0000006C00200043004F004D00200050006F6A
:103C10000072007400200020000000003C3C0008FE
:103C2000000000208C02000090070008B03D000852
:103C30008C020020DC0A0000303000081184A24A07
:103C400004680D01020304060708090204060810AF
:103C50006914592219022906213A0A0C49025A020A
:103C6000021A03021A04021A0502120612071208A7
:103C70001A0928120B120D120F121112131216121A
:103C800019121C122012241229122F1235123D1261
:103C900045124F1259126612741283129512AA120B
:103CA000C112DB12FA38141C0143016F01A101DAC1
:103CB000011B026502B902180385591E850318030A
:103CC000B9121C1B02DA1E1A6F261C1C01FA321ACA
:103CD000C13A1A95421A744A1A59521A455A1A3553
:103CE000621A296A1A20721A197A1A13821A0F8A0A
:103CF0001A0B921A099A1A07A229A829B029B86999
:103D0000C469D4126E1012E80316049704260575D0
:103D1000052006E006B807012B9302026D0B021086
:103D200003062BDC03023E160410034B121D4B024C
:103D30001A017351041B803F01141A0353125412C9
:103D40004D1233022132132D110C1C085F17040A87
:103D500011A924512AC286120813683B3308121A8B
:103D60007A08324313712F1408352E1B0855081A90
:103D70006D0413512D1B080D101AF9081AB1041AFD
:103D8000A5041AD9044132401ABD3832041AC108B8
:103D900032261AE70829BA1A78F0321A1A04672963
:103DA000741A154C0916A41A2D1C412992011400ED
:0400000508000131BD
:00000001FF
